{
  "contractName": "StoreHash",
  "abi": [
    {
      "constant": false,
      "inputs": [
        {
          "name": "_hashFile",
          "type": "string"
        }
      ],
      "name": "sendHash",
      "outputs": [],
      "payable": false,
      "stateMutability": "nonpayable",
      "type": "function"
    },
    {
      "constant": true,
      "inputs": [],
      "name": "getHash",
      "outputs": [
        {
          "name": "",
          "type": "string"
        }
      ],
      "payable": false,
      "stateMutability": "view",
      "type": "function"
    }
  ],
  "bytecode": "0x608060405234801561001057600080fd5b506102d7806100206000396000f30060806040526004361061004c576000357c0100000000000000000000000000000000000000000000000000000000900463ffffffff168063d13319c414610051578063dfb29935146100e1575b600080fd5b34801561005d57600080fd5b5061006661014a565b6040518080602001828103825283818151815260200191508051906020019080838360005b838110156100a657808201518184015260208101905061008b565b50505050905090810190601f1680156100d35780820380516001836020036101000a031916815260200191505b509250505060405180910390f35b3480156100ed57600080fd5b50610148600480360381019080803590602001908201803590602001908080601f01602080910402602001604051908101604052809392919081815260200183838082843782019150505050505091929192905050506101ec565b005b606060008054600181600116156101000203166002900480601f0160208091040260200160405190810160405280929190818152602001828054600181600116156101000203166002900480156101e25780601f106101b7576101008083540402835291602001916101e2565b820191906000526020600020905b8154815290600101906020018083116101c557829003601f168201915b5050505050905090565b8060009080519060200190610202929190610206565b5050565b828054600181600116156101000203166002900490600052602060002090601f016020900481019282601f1061024757805160ff1916838001178555610275565b82800160010185558215610275579182015b82811115610274578251825591602001919060010190610259565b5b5090506102829190610286565b5090565b6102a891905b808211156102a457600081600090555060010161028c565b5090565b905600a165627a7a72305820aa617fb9ae00dc7e2bd7f479a8c03abea4308c64b292d7b4ad0e31b4673e5ff40029",
  "source": "\n//0xb84b12e953f5bcf01b05f926728e855f2d4a67a9  contract address on rinkeby\npragma solidity >=0.4.22 <0.6.0;\n\ncontract StoreHash {\n  string internal ipfsHash;\n \n  function sendHash(string memory _hashFile) public {\n    ipfsHash = _hashFile;\n  }\n\n  function getHash() public view returns (string memory) {\n    return ipfsHash;\n  }\n}",
  "sourcePath": "/Data/projects/MPL/eth-ipfs/ethereum/contracts/StoreHash.sol",
  "compiler": {
    "name": "solc",
    "version": "0.4.25+commit.59dbf8f1.Emscripten.clang"
  },
  "schemaVersion": "2.0.2",
  "updatedAt": "2019-05-23T10:26:40.989Z"
}